:020000040800F2
:1000000000500020F91D0008510C0008550C000894
:10001000590C00085D0C0008610C0008000000008D
:10002000000000000000000000000000650C000857
:10003000690C0008000000006D0C0008710C00083D
:10004000411E0008411E0008411E0008411E000814
:10005000411E0008411E0008411E0008411E000804
:10006000411E0008411E0008411E0008411E0008F4
:10007000411E0008411E0008411E0008411E0008E4
:10008000411E0008411E0008411E0008411E0008D4
:10009000411E0008411E0008411E0008411E0008C4
:1000A000411E0008411E0008411E0008411E0008B4
:1000B000411E0008411E0008411E0008411E0008A4
:1000C000411E0008411E0008411E0008411E000894
:1000D000411E0008411E0008411E0008411E000884
:1000E000750C0008411E0008411E000800000000B9
:1000F0000000000000000000000000000000000000
:0C01000000000000000000005FF808F1A3
:10010C000348044B834202D0034B03B1184770479A
:10011C006805002068050020000000000548064B1B
:10012C001B1AD90F01EBA301491002D0034B03B1E9
:10013C001847704768050020680500200000000083
:10014C0010B5064C237843B9FFF7DAFF044B13B113
:10015C000448AFF300800123237010BDC8050020B4
:10016C00000000008433000808B5054B1BB105499D
:10017C000548AFF30080BDE80840FFF7CFBF00BFD4
:10018C0000000000CC0500208433000870B50F4B34
:10019C000F4DAB42A3EB050607D00024B61055F863
:1001AC00043B01349847A642F9D803F0E5F8094D11
:1001BC00094B5E1BAB424FEAA60606D0002455F84D
:1001CC00043B01349847A642F9D870BDD0330008DF
:1001DC00D0330008D0330008D8330008704700BF74
:1001EC00704700BF024B13B1024800F005B87047CE
:1001FC0000000000650A0008002301461A46184654
:10020C0000F04CBC2DE9F84306460820894600F066
:10021C0037FC0546DFF89880304600F0FFFBD8F835
:10022C0008305F6827F00307A7F11104A4EB090459
:10023C002C44B4FBF5F4013C05FB04F4A54208DCAA
:10024C000021304600F0F6FBD8F808303B449842C9
:10025C0005D0304600F0E8FB0020BDE8F8833046BE
:10026C00614200F0E7FB01300FD0124AD8F8083099
:10027C003F1B47F001075F60136830461B1B136080
:10028C0000F0D2FB0120BDE8F8830021304600F0DD
:10029C00D1FBD8F80820831A0F2BDADD43F00103C9
:1002AC005360054B03491B68C01A0860D1E700BFB7
:1002BC00600100202C0700205401002000297CD074
:1002CC00F8B50C46064600F0A9FB54F8043C764FF2
:1002DC00A4F1080523F001016818D7F808C042689A
:1002EC00844522F0030200F08380DB07426000EBC0
:1002FC00020C33D454F8084CDCF804302D1B214488
:10030C00AC6807F1080C644503F0010364D0D5F820
:10031C000CE0C4F80CE0CEF80840002B00F0818013
:10032C0041F001036B600160B1F5007F22D2012224
:10033C00CB0849098A40796801330A437A6057F837
:10034C00331007EBC302083AC5E9021247F83350E1
:10035C00CD603046BDE8F84000F066BBDCF80430F8
:10036C00DB072BD541F00103B1F5007F44F8043CC9
:10037C000160DCD3B1F5206F4FEA512353D28B09C6
:10038C0003F1390003F13802C300F818FB580838A0
:10039C00984203D161E09B68984204D05A6822F0DD
:1003AC0003028A42F7D8D868C5E902308560304626
:1003BC00DD60BDE8F84000F037BB7047114407F131
:1003CC00080C836863453FD0C268DA60936041F0E3
:1003DC0001036B606950A7E7002B5FD10A44D0E999
:1003EC000213CB60996042F001036B60AA50B0E736
:1003FC000A44D90707D454F8083CED1A1A44D5E935
:10040C000213CB60996042F001036B60274BBD6017
:10041C001B6893429DD8264B30461968FFF7F2FEB5
:10042C0097E71144CDE7142B08D9542B1DD80B0B8F
:10043C0003F16F0003F16E02C300A6E703F15C0049
:10044C0003F15B02C300A0E741F00103C7E90455C7
:10045C00C5E902CC6B6069507BE70121921001FA6F
:10046C0002F279680A437A609EE7B3F5AA7F06D850
:10047C00CB0B03F1780003F17702C30085E740F260
:10048C005452934206D88B0C03F17D0003F17C028D
:10049C00C3007AE74FF47E737E2276E741F00103C6
:1004AC006B60016055E700BF60010020580100201F
:1004BC005C0700202DE9F04F01F10B05162D0646C7
:1004CC0083B024D8102900F2AD8000F0A7FA1025D3
:1004DC0018234FF0020CB84F3B445C68A3F10802A0
:1004EC00944200F01D8130466368E268A16823F0F5
:1004FC000303CA60234491605A68083442F0010235
:10050C005A6000F091FA204603B0BDE8F08F35F048
:10051C00070500F18780A94200F2848000F07EFA82
:10052C00B5F5FC7FC0F06F816B0A7FD0042B00F215
:10053C001E81AB0903F1390C03F1380E4FEACC00E4
:10054C009D4F384444680838A04207D10DE0002A7A
:10055C00E16880F2DF80884207D00C46636823F0A4
:10056C0003035A1B0F2AF2DDF446DFF850823C6974
:10057C00444500F0BC80636823F00309A9EB050334
:10058C000F2B00F34581002BC7E9048880F22F81E3
:10059C00B9F5007FD7F804E080F0C98001234FEA59
:1005AC00D9014FEA5919194403FA09F357F83120C4
:1005BC004EEA030E07EBC103083BA260E360C7F8E9
:1005CC0004E047F83140D46001204FEAAC03984076
:1005DC00704532D810EA0E0F07D12CF0030C4000F6
:1005EC0010EA0E0F0CF1040CF9D007EBCC0AD6462E
:1005FC00E146DEF80C300BE059681C4621F0030193
:10060C004A1B0F2ADB6800F3BF80002A80F2E280CD
:10061C009E45F1D109F1010919F0030F0EF1080EF5
:10062C00E7D11FE10C23336000246CE74FF400701A
:10063C004FF0400C4FF03F0E82E7BC68636823F02C
:10064C000309A94503D3A9EB05030F2B52DC5C4B23
:10065C0008201B6803F1100804EB0903009300F059
:10066C000FFA584A83461368A844013305D008F1A1
:10067C00FF388044434203EA08084146304600F004
:10068C00D9F9B0F1FF3F82464E4A00F0DC8004EB12
:10069C000903834200F2D5804B4B0BF1FF311868F4
:1006AC0040448446186040F0FB801AEA010F40F089
:1006BC00F780D7F808A0C84448F00102CAF8042013
:1006CC005446424B1968814238BF1860404B196838
:1006DC00814238BF186022F00308A845A8EB050337
:1006EC0001D30F2B06DC304600F09EF99CE7D7F8BF
:1006FC0004E069E7621943F0010345F00105656008
:10070C003046BA600834536000F08EF9204603B0CE
:10071C00BDE8F08FA2683046D16023448A60EBE6D6
:10072C00DC68A3427FF4DFAE0CF1020C1DE7B9F5D7
:10073C00206F4FEA59227DD3142A00F2118102F165
:10074C005C03DB005B32F918FB580839994203D182
:10075C00ECE09B68994204D05A6822F003024A45A7
:10076C00F7D8D968C4E902318C60DC602CE7142B13
:10077C006CD9542B00F2FD802B0B03F16F0C03F1A1
:10078C006E0E4FEACC00DBE6D4F808C03046661992
:10079C0045F001056560CCF80C30C3F808C042F098
:1007AC000103C7E90466C6E902887360625000F071
:1007BC003BF90834A7E600BF600100206801002067
:1007CC005C070020540100202C0700205807002053
:1007DC005407002021444A68304642F001024A6026
:1007EC0054F8082FD3609A6000F01EF98BE6A144F0
:1007FC00D9F80430304643F00103C9F8043000F056
:10080C0013F908347FE64FEAD50C05F1080362E6CC
:10081C00621943F0010145F0010565603046C7E9F6
:10082C000422C2E90288516044F8093000F0FCF857
:10083C00083468E64FEA991202F13903DB003832CA
:10084C0081E7BC4224D0BC68626844E703F15C0CCD
:10085C0003F15B0E4FEACC0072E65AF808395345A7
:10086C0040F0D8801CF0030F0CF1FF3CF5D17B68F5
:10087C0023EA00037B60400098423FF6DEAE18B9D5
:10088C00DBE6400009F104091842FAD0CC46ACE68C
:10089C00614B0BF1FF31186808EB000CC3F800C07A
:1008AC001068013070D004EB0902AAEB020262441A
:1008BC001A601AF00702CDE9002340D0C2F10802F9
:1008CC009244D04408EA01005A44121A02EA010B7D
:1008DC005946304600F0AEF8421C019B71D0A0EB9B
:1008EC000A0000EB0B08186848F001025844BC429F
:1008FC00C7F808A01860CAF804203FF4E1AEB9F1BB
:10090C000F0F44D94FF0050C6168A9F10C0222F0CD
:10091C00070201F00101114361600F2A04EB02018F
:10092C00C1E901CC55D8DAF80420C9E601209210AF
:10093C0000FA02F24EEA020EC7F804E012E70AEBE4
:10094C0008020A40ABEB020202EA010B59463046A0
:10095C0000F070F8431C019BC1D1DDF800B0C2E778
:10096C00542A18D84FEA193202F16F03DB006E32A9
:10097C00E9E6B3F5AA7F18D8EB0B03F1780C03F179
:10098C00770E4FEACC00DBE5C2F800A091E701231B
:10099C00CAF80430A7E6B2F5AA7F25D84FEAD932B7
:1009AC0002F17803DB007732CDE640F254529342E9
:1009BC0025D8AB0C03F17D0C03F17C0E4FEACC0077
:1009CC00BEE5009A4FF0000B083A9044A8EB0A08D9
:1009DC0089E7304604F108010093FFF76FFC009B98
:1009EC00D7F808A018689EE740F254539A420DD8E5
:1009FC004FEA994202F17D03DB007C32A3E64FF40F
:100A0C007E704FF07F0C4FF07E0E99E54FF47E73A5
:100A1C007E2298E67B682EE72C0700200148FFF722
:100A2C00DDBB00BF200700200148FFF7D9BB00BF8A
:100A3C0020070020002238B5064D044608462A60DF
:100A4C0000F072F8431C00D038BD2B68002BFBD093
:100A5C00236038BD1C07002038B5074D074C2C1BF4
:100A6C00A41005D0013C55F8043D9847002CF9D151
:100A7C00BDE8384002F086BCDC330008D8330008EF
:100A8C00082802D14FF48050704708B500F046F8A2
:100A9C00162203464FF0FF301A6008BD2DE9F843CB
:100AAC001B4D0646286898460F469146FFF796FB65
:100ABC00184B1C681CB3286865681F2D22DC4EB9C6
:100ACC006B1C0235636044F82570FFF789FB00202E
:100ADC00BDE8F883012304EB8501C1F88890D4F8B4
:100AEC008821AB401A43022EC4F88821C1F8088132
:100AFC00E6D1D4F88C211A43C4F88C21E0E7064CDB
:100B0C001C60D8E7FFF76CFB4FF0FF30E0E700BF4D
:100B1C00500100202807002060070020014B1868B6
:100B2C00704700BF0C0000200D49034610B50D4A5C
:100B3C000D4C0868121B20B10344934207D80B607C
:100B4C0010BD0A4C2046034493420C60F7D9FFF7C2
:100B5C00E5FF0C2203464FF0FF301A6010BD00BFBA
:100B6C00680500200050002000040000F008002060
:100B7C00704700BF10B54FF0FF320024044B1A61D0
:100B8C001C61DA60DC60FFF7F3FF204610BD00BF8C
:100B9C00001002404FF47A7370B50D4E0D4A317847
:100BAC001268B3FBF1F30546B2FBF3F000F0BCF8AE
:100BBC0008B90F2D01D9012070BD04460246294603
:100BCC004FF0FF3000F066F82046756070BD00BF36
:100BDC000000002008000020074A08B51368032015
:100BEC0043F01003136000F043F80020FFF7D2FF2E
:100BFC0002F064FB002008BD00200240034A044BB5
:100C0C0011681B780B441360704700BF6C05002003
:100C1C0000000020014B1868704700BF6C050020D5
:100C2C0038B50446FFF7F6FF631C054602D0044BAB
:100C3C001B781C44FFF7EEFF401BA042FAD338BDD3
:100C4C0000000020FEE700BFFEE700BFFEE700BF8C
:100C5C00FEE700BFFEE700BF704700BF704700BF54
:100C6C00704700BFFFF7CABF4FF4005001F0B2B895
:100C7C004FF6FF0C06490302CA6803F4E06302EA6C
:100C8C000C02134343F0BF6343F40033CB60704753
:100C9C0000ED00E01B4B00B5DB68C3F30223C3F18E
:100CAC00070EBEF1040F03F1040C28BF4FF0040E25
:100CBC00BCF1060F1CD9A3F1030C4FF0FF3303FA60
:100CCC000CF322EA03024FF0FF3303FA0EF321EA8E
:100CDC00030303FA0CF313431B010028DBB20ADBFA
:100CEC0000F1604000F5614080F800335DF804FBD2
:100CFC0000229446E7E7044A00F00F000244137602
:100D0C005DF804FB00ED00E0FCEC00E0002807DBE4
:100D1C00012300F01F01034A40098B4042F82030A8
:100D2C00704700BF00E100E00138B0F1807F01D3D3
:100D3C00012070474FF0E0234FF0F00C0022072108
:100D4C0010B4044C586184F823C010469A6110BC4E
:100D5C001961704700ED00E0704700BF002800F0FB
:100D6C00E4812DE9F04103680446DD0782B035D5F6
:100D7C0099494A6802F00C02042A00F0ED804A6896
:100D8C0002F00C02082A00F0E3806368B3F5803FA0
:100D9C0010D0002B00F00A81B3F5A02F00F0808159
:100DAC008D4B1A6822F480321A601A6822F4802261
:100DBC001A6004E0884A136843F480331360FFF729
:100DCC0029FF854E054605E0FFF724FF401B6428EC
:100DDC0000F2E88033689A03F6D523689F0728D57C
:100DEC007D4A516811F00C0F00F09680516801F0AB
:100DFC000C01082900F08C802369002B00F016816F
:100E0C000122764B744E1A60FFF704FF054605E08D
:100E1C00FFF700FF401B022800F2C48033689807DC
:100E2C00F6D53368626923F0F80343EAC2033360F2
:100E3C0023681A0729D45D074BD5674BDA69D000B4
:100E4C0000F184800125DA6942F08052DA61DB69B5
:100E5C0003F080530093009B614E3368D90540F139
:100E6C009180E368012B00F0F280002B00F0BE8033
:100E7C00052B594B1A6A00F0208122F001021A62EC
:100E8C001A6A22F004021A62E6E0A369002B4CD025
:100E9C000122524B504EC3F88024FFF7BBFE05468F
:100EAC0004E0FFF7B7FE401B02287BD8736A9B0750
:100EBC00F7D54C4B4C4A1B68A2FB03235B0A0193EE
:100ECC0000BF019B5A1E0192002BF9D123685D07CC
:100EDC00B3D4E369C3B1404D6A6802F00C02082A2E
:100EEC0000F0CD800022022B3C4B1A6600F0ED8006
:100EFC00FFF790FE044604E0FFF78CFE001B02286F
:100F0C0050D82B689B01F7D4002002B0BDE8F081CB
:100F1C005268D6033FF570AF2F4A1268950725D556
:100F2C002269012A22D00120EFE72C4A2A4EC2F86E
:100F3C008034FFF76FFE054604E0FFF76BFE401BA5
:100F4C0002282FD8736A9F07F7D4BFE7002583E7E1
:100F5C004A68D0037FF519AF1F4A126891037FF5D9
:100F6C003DAF6268002A7FF439AFDCE71A4960694B
:100F7C000A6822F0F80242EAC0020A601A077FF5FA
:100F8C005AAF82E7336843F480733360FFF742FE55
:100F9C0007463368DA053FF564AFFFF73BFEC01B2D
:100FAC006428F6D9032002B0BDE8F0810A4D2B6805
:100FBC0023F480332B602B6823F480232B60FFF702
:100FCC0029FE064604E0FFF725FE801B6428E9D8BD
:100FDC002B689B03F7D400E700100240000042424C
:100FEC000070004008000020D34D6210504E41F2BA
:100FFC008838336A23F001033362336A23F0040325
:10100C003362FFF707FE074604E0FFF703FEC01B41
:10101C004045C7D8336A9807F7D4002D3FF459AF31
:10102C00434AD36923F08053D36152E7414A404E7F
:10103C001360FFF7EFFD054604E0FFF7EBFD401BE7
:10104C000228AFD833689907F7D42368F1E6384AF9
:10105C00136A43F001031362FFF7DCFD41F2883899
:10106C000646334F04E0FFF7D5FD801B404599D869
:10107C003B6A9B07F7D5002D3FF42BAFD0E7012B34
:10108C003FF451AF6B68226A03F4803191427FF4D4
:10109C004AAF606A03F47013181A18BF012034E7C2
:1010AC0003F18043A3F53C331A6842F480221A60A2
:1010BC001A6842F480321A6081E642F004021A6225
:1010CC001A6A42F001021A62C6E7FFF7A3FD064650
:1010DC0005E0FFF79FFD801B02283FF663AF2B68EE
:1010EC009901F6D4236AB3F5803F05D16A68A168EB
:1010FC0022F400320A436A6001200D4D616A6A686D
:10110C000B4322F474120B4913436B600866FFF710
:10111C0081FD044605E0FFF77DFD001B02283FF62C
:10112C0041AF2B689A01F6D5EEE60120704700BF5F
:10113C000010024000004242002800F0A180564AF4
:10114C002DE9F0411368044603F007038B420D466A
:10115C000CD2136823F007030B431360136803F0DE
:10116C0007038B4202D00120BDE8F08123689E0763
:10117C0014D5580704D549494A6842F4E0624A60DC
:10118C00190704D545494A6842F460524A604349FC
:10119C00A0684A6822F0F00202434A60DA0720D5C0
:1011AC0062683E4B012A1B686CD0022A65D09E07F0
:1011BC00D9D53A4E41F28838736823F003031343B0
:1011CC007360FFF727FD074604E0FFF723FDC01B04
:1011DC0040455AD87368626803F00C03B3EB820F76
:1011EC00F3D12D4A136803F00703AB4209D91368F6
:1011FC0023F007032B431360136803F00703AB4280
:10120C00B1D12368580706D52449E0684A6822F40E
:10121C00E06202434A60190707D5204A21695368E6
:10122C0023F4605343EAC10353601C494A6802F03B
:10123C000C03082B10D01A4B184A1A4852681A493A
:10124C00C2F30312805C194AC34008681360FFF7AD
:10125C00A1FC0020BDE8F0811548C2F38343D20302
:10126C00C35C14D54A680E49C2F3404201FB03F338
:10127C001044027CB3FBF2F3DEE79F0199D472E7D2
:10128C00012070479B0394D46DE703206CE7094A57
:10129C0002FB03F3D0E700BF002002400010024025
:1012AC0000127A009C330008040000200800002083
:1012BC00B433000800093D00F0B500224FF48076ED
:1012CC000227032387B0CDE90267CDE904230B4C39
:1012DC000D46A3690A4843F00403A361A36902A95C
:1012EC0003F004030193019B00F058FB636823F0A7
:1012FC00E0632B43636007B0F0BD00BF00100240F9
:10130C0000080140044B054A5B680549C3F30223FE
:10131C00CB5C1068D84070470010024008000020D9
:10132C00AC330008044B054A5B680549C3F3C22380
:10133C00CB5C1068D84070470010024008000020B9
:10134C00AC33000810B544F2682002F00DF800220E
:10135C0004460C210B4B0C48DFF830C0C3E90422C7
:10136C00C3E902C003F10800C3E90621C3E908225E
:10137C001C6000F06BF800B910BDBDE8104000F027
:10138C000BBB00BF7005002000941100004400400E
:10139C0008B53A2000F00AFE552000F02FFE2A2056
:1013AC0000F004FE002000F051FE4FF4F07000F04D
:1013BC004DFE2B2000F0FAFD002000F047FE4FF40C
:1013CC00A07000F043FEBDE808402C2000F0EEBDFC
:1013DC00054890F8503003B170474FF0FF330522A9
:1013EC000249083000F0A0B870050020C83300088E
:1013FC0038B5144C01222021134800F0DBFC2046A8
:10140C004FF0FF3344F2682250F8081B00F010F93B
:10141C00002220210C4800F0CDFC0022012144F2D6
:10142C006725134684F8501062652268D05C00F082
:10143C00E5FD636D0133AB426365F6D9002384F897
:10144C00503038BD7005002000080140002865D0E0
:10145C0070B590F84130044603F0FF02002B55D0D4
:10146C00D4E902262421236884F84110D968206924
:10147C0021F40051A56902436069D96019690243DE
:10148C0021F4405131431961D968254821F4B051F8
:10149C0021F00C010A43DA605A69834222F440724B
:1014AC0042EA05025A6136D0FFF72CFF626800EB66
:1014BC008003920003EB8303B3FBF2F34FF0640E53
:1014CC0000254FF0200C17482168A0FB036252093D
:1014DC000EFB12331B013233A0FB0303120102EB90
:1014EC0053128A600B69284623F490430B614B69B5
:1014FC0023F02A034B61CB6843F40053CB60656443
:10150C0084F841C084F842C0656370BD80F8402007
:10151C0001F0F6FEA4E7FFF705FFC7E701207047CF
:10152C00003801401F85EB512DE9F843164690F821
:10153C004120202A55D10D4601B116B90120BDE834
:10154C00F8831F464FF0000821230446C0F844805E
:10155C0080F84130FFF75EFBA3688146B3F5805FEE
:10156C00A684E68440D0E38C22689BB2002B47D043
:10157C007B1C24D113681F06FCD5002D2CD015F82C
:10158C00013B5360E38C013B9BB2E384E38C9BB245
:10159C00002BEFD113685906FCD5202384F8413079
:1015AC000020BDE8F883002D3DD015F8013B5360B9
:1015BC00E38C013B9BB2E384E38C9BB213B31368C3
:1015CC001E06F0D4FFF726FBA0EB09039F4211D3B4
:1015DC0087B12268D368F2E738F8023BC3F30803FB
:1015EC00CFE70220BDE8F8832369002BBBD1A846C6
:1015FC001D46B8E7202384F841300320BDE8F8836A
:10160C00781CC7D013685B06C7D4FFF703FBA0EBAD
:10161C0009039F42EED3002FECD02268D3681368E5
:10162C005B06F2D5B9E738F8023BC3F30803BEE713
:10163C002DE9F043164690F8422083B0202A4AD177
:10164C000D4601B11EB9012003B0BDE8F0834FF087
:10165C0000081F4622230446C0F8448080F842301C
:10166C00C0F83080FFF7D6FAA3688146B3F5805FE7
:10167C00A685E68500F099804646E38D9BB2CBB1FA
:10168C007B1C41D1226813689F06FCD5EDB1A36881
:10169C00B3F5805F02D0A3B9236993B95368DBB269
:1016AC0005F8013BE38D013B9BB2E385E38D9BB2D7
:1016BC00002BE7D12023002084F8423003B0BDE892
:1016CC00F083536803F07F03EAE75368C3F308031E
:1016DC0026F8023BE6E7022003B0BDE8F083002DBC
:1016EC0070D0A268B2F5805F69D0002A64D05B68C4
:1016FC0003F07F0305F8013BE38D013B9BB2E385CF
:10170C00E38D9BB2002BD5D023681A6812F0200809
:10171C00E5D1FFF77FFAA0EB09039F423ED3002FE0
:10172C003CD02368D9681A464807EED519680907D2
:10173C00EBD5CDF804801968019159680191019994
:10174C0003F10C0151E8001F21F490710C3343E8B4
:10175C00001058B102F10C0353E8003F23F49073CE
:10176C0002F10C0040E800310029F3D102F114031E
:10177C0053E8003F23F0010302F1140040E800316C
:10178C000029F3D1236B012B22D000232021082226
:10179C0084F8421084F840302363626420230320D1
:1017AC0084F8423003B0BDE8F0832369002B7FF44A
:1017BC0063AF2E461D4660E72269002A97D15B680D
:1017CC00DBB297E75B68C3F3080326F8023B93E7A9
:1017DC0002F10C0353E8003F23F0100302F10C005C
:1017EC0040E800310029F3D1CFE700BF00230122EC
:1017FC0030B5012091B04FF480310224CDE90B3388
:10180C00CDE90233CDE90433089301930A9209938D
:10181C004FF480324FF4E013CDE9060106A8CDE970
:10182C000E230D94FFF79AFA08B172B6FEE7034641
:10183C004FF480620F25214601A804920294039371
:10184C0005930195FFF778FC024608B172B6FEE7E6
:10185C004FF0E061FFF730FD11B030BD002480B5D2
:10186C008AB0FFF7B9F9FFF7C1FFCDE90644CDE91E
:10187C000844444B40F2F2619A69434842F010022A
:10188C009A619A69012602F010020292029A9A69F0
:10189C00032542F020029A619A69022702F0200285
:1018AC000392039A9A6942F004029A619A6902F0CF
:1018BC0004020492049A9A6942F008029A619B69A4
:1018CC00224603F008030593059B00F073FA2246A9
:1018DC0040F261712D4800F06DFA224680212C48AF
:1018EC0000F068FA4FF400522A4B294806A9CDE9BA
:1018FC000623089400F052F840F2F263224806A93D
:10190C00CDE906360894099500F048F840F2617369
:10191C001E4806A9CDE90636CDE9084500F03EF88B
:10192C0080231B4806A9CDE90636CDE908454FF4BE
:10193C00807600F033F80223134806A90993CDE909
:10194C00066700F02BF8224621462820FFF7A2F963
:10195C002820FFF7DBF9FFF7F5FC00F0ADFB4FF4A7
:10196C00A0734FF4F07221462046009401F0F0FB76
:10197C00FFF70EFD00F09EFAFFF72AFDFFF738FD8A
:10198C00F8E700BF0010024000080140000C0140C5
:10199C00001001400000111072B6FEE72DE9F04F67
:1019AC000C6885B0002C00F0AD80B34B984200F071
:1019BC00D7800022031D019301250F279246134661
:1019CC008346DFF8B88206E0013334FA03F002F103
:1019DC00040200F0978005FA03F030EA040C00EAE8
:1019EC000406F1D14C68122C00F2A080122C16D8EF
:1019FC00DFE814F0AF0013009800950115001500F6
:101A0C001500150015001500150015001500150022
:101A1C0015001500150094009000D1F80CA0FF2EB5
:101A2C0099BF5C469446019CA2F1200C206807FAF1
:101A3C000CFE20EA0E000AFA0CFC40EA0C002060B6
:101A4C004C68E00064D5D8F8180023F0030C40F083
:101A5C000100C8F81800D8F818000CF1804C00F000
:101A6C00010003900CF5803C03F0030903984FEA46
:101A7C008909DCF8080007FA09FE20EA0E0E8048F6
:101A8C00834500F02C817F48834500F039817E48E6
:101A9C0083450CBF0320042000FA09F040EA0E0035
:101AAC00CCF80800DFF8E4C114F4801FDCF808005F
:101ABC0014BF3043B043CCF80800DFF8D0C114F4A5
:101ACC00001FDCF80C0014BF3043B043CCF80C0002
:101ADC00DFF8B8C114F4003FDCF8040014BF304345
:101AEC00B04314F4803F694CCCF8040020680CD04F
:101AFC00304320600C68013334FA03F002F1040225
:101B0C007FF469AF05B0BDE8F08F20EA06002060D5
:101B1C000C6859E7C86800F10C0A80E7C86800F146
:101B2C00040A7CE7C86800F1080A78E7DFF860C1AE
:101B3C0064450ED000F2D980ACF5801C644508D009
:101B4C000CF5702C644504D0ACF5801C64457FF416
:101B5C0066AF8C68002C40F0D9804FF0040A5EE729
:101B6C004FF000096FF01F0501274FF00F0E4B4689
:101B7C00DFF808C1DFF81C8105E0013334FA03F209
:101B8C0005F10405BED007FA03F232EA040A04EAAE
:101B9C000206F2D14C68122C00F2C480122C16D81A
:101BAC00DFE814F0D2001300DF00F400150015007C
:101BBC001500150015001500150015001500150071
:101BCC00150015001500E300DB00D1F80C90FF2E7A
:101BDC0062D9AA46444622680EFA0AFB22EA0B0294
:101BEC0009FA0AFA42EA0A0222604A68D40057D576
:101BFC00DCF8184003F0030A44F00104CCF8184058
:101C0C00DCF818404FEA8A0A04F001040394039CA0
:101C1C0023F0030404F1804404F58034D4F808B0B4
:101C2C000EFA0AFA2BEA0A0AC4F808A0D40239D52B
:101C3C00DFF858A0DAF808403443CAF80840940298
:101C4C003AD5DFF848A0DAF80C403443CAF80C4017
:101C5C0094033BD5DFF834A0DAF804403443CAF8D7
:101C6C0004400A4C12F4803F22680CBFB24332434A
:101C7C0022600C6881E700BF0008014000100240A0
:101C8C00000C014000100140001401400004014010
:101C9C00000022100408014004464FEA830A9AE728
:101CAC000C686AE7DFF8F0A0DAF8084024EA0604CA
:101CBC00CAF808409402C4D4DFF8DCA0DAF80C406F
:101CCC0024EA0604CAF80C409403C3D4DFF8C8A075
:101CDC00DAF8044024EA0604CAF80440C1E70120FB
:101CEC0000FA09F040EA0E00DAE6DFF8B0C064450D
:101CFC003FF42FAF0CF5803C64457FF490AE28E7A1
:101D0C00022000FA09F040EA0E00C9E6012C4FF05F
:101D1C00080A0CBFCBF81000CBF814007FE64FF08C
:101D2C00000A7CE6DFF878A054450DD021D8AAF53E
:101D3C00801A544508D00AF5702A544504D0AAF5E7
:101D4C00801A54457FF443AF8C68E4B1012C154CD8
:101D5C001FD062614FF0080939E7CA6802F10C091B
:101D6C0035E7CA6802F1080931E7CA6802F10409CB
:101D7C002DE7DFF828A05445E6D00AF5803A544503
:101D8C007FF425AFE0E74FF0040920E74FF000099E
:101D9C001DE72261DEE700BF0004014000003110A6
:101DAC0000002210000801408368194214BF012072
:101DBC000020704702B9090401617047C36801EA49
:101DCC00030221EA030141EA02410161704700BFAD
:101DDC00704700BF044A5169014200D1704708B5F1
:101DEC005061FFF7F5FF08BD00040140FEF7B4FF9A
:101DFC000B480C490C4A002302E0D458C45004335D
:101E0C00C4188C42F9D3094A094C002301E0136031
:101E1C000432A242FBD3FEF7B9F9FFF71FFD70475E
:101E2C000000002068050020DC3300086805002055
:101E3C00F0080020FEE7000070B504461B4E1C4D58
:101E4C00304604F001024FF48061FFF7B3FF2846DF
:101E5C00C4F340022021FFF7ADFF2846C4F38002F3
:101E6C004FF48061FFF7A6FF2846C4F3C0024FF47D
:101E7C000071FFF79FFF2846C4F300124FF48071E6
:101E8C00FFF798FF3046C4F340120221FFF792FF90
:101E9C003046C4F380121021FFF78CFF2846E2096C
:101EAC000121BDE87040FFF785BF00BF000801406D
:101EBC00000C014030B54FF4005187B03748FFF7A4
:101ECC0073FF08B107B030BD044602468021344888
:101EDC00FFF770FF224640213248FFF76BFF2820A6
:101EEC00FFF7AAFF224680212C48FFF763FF01224F
:101EFC0080212A48FFF75EFF012280212848FFF746
:101F0C0059FF0A20FEF78CFE224680212448FFF759
:101F1C0051FF224640212348FFF74CFF1020FFF7CA
:101F2C008BFF224680211D48FFF744FF01228021B0
:101F3C001A48FFF73FFF012280211948FFF73AFFAB
:101F4C007820FEF76DFEFEF715FECDE90244CDE9D3
:101F5C000444154B22469D69202145F004049C61E4
:101F6C009B690F4803F0040301932024019B012576
:101F7C00FFF720FF00220323094802A9CDE90245FF
:101F8C00CDE90423FFF70AFD054C20462021FFF77D
:101F9C0015FF4FF49670FEF743FEF6E70010014074
:101FAC0000080140000C01400010024038B5044606
:101FBC000F4D002228468021FFF7FCFE0022402115
:101FCC000C48FFF7F7FE20460B4CFFF735FF204679
:101FDC0000228021FFF7EEFE204601228021FFF730
:101FEC00E9FE2846BDE8384001228021FFF7E2BE19
:101FFC0000080140000C01400010014038B50446B7
:10200C000F4D002228468021FFF7D4FE01224021EB
:10201C000C48FFF7CFFE20460B4CFFF70DFF204678
:10202C0000228021FFF7C6FE204601228021FFF707
:10203C00C1FE2846BDE8384001228021FFF7BABE18
:10204C0000080140000C01400010014070B505462D
:10205C00164E002230468021FFF7ACFE144C0122B4
:10206C0040211448FFF7A6FE280AFFF7E5FE20469C
:10207C0000228021FFF79EFE012280212046FFF7DF
:10208C0099FEE8B2FFF7D8FE204600228021FFF728
:10209C0091FE204601228021FFF78CFE3046BDE8E0
:1020AC00704001228021FFF785BE00BF000801406F
:1020BC0000100140000C014070B5FD4DFD4C284650
:1020CC0001228021FFF776FE284601224FF4007191
:1020DC00FFF770FE204601228021FFF76BFE0022E5
:1020EC0040212846FFF766FE0220F34EFEF798FDCE
:1020FC00284601224021FFF75DFE28460022802160
:10210C00FFF758FE002240213046FFF753FE002017
:10211C00FFF792FE204600228021FFF74BFE20465F
:10212C0001228021FFF746FE204600228021FFF786
:10213C0041FE204601228021FFF73CFE2046002272
:10214C008021FFF737FE204601228021FFF732FE67
:10215C00204600228021FFF72DFE204601228021FF
:10216C00FFF728FE012280212846FFF723FEC82016
:10217C00FEF756FD284600228021FFF71BFE0022A9
:10218C0040213046FFF716FEF120FFF755FE2046A2
:10219C0000228021FFF70EFE204601228021FFF74E
:1021AC0009FE284601228021FFF704FE2846002262
:1021BC008021FFF7FFFD012240213046FFF7FAFD99
:1021CC003620FFF739FE204600228021FFF7F2FD72
:1021DC00204601228021FFF7EDFD284601228021B7
:1021EC00FFF7E8FD284600228021FFF7E3FD0122DE
:1021FC0040213046FFF7DEFD0420FFF71DFE204690
:10220C0000228021FFF7D6FD204601228021FFF716
:10221C00D1FD284601228021FFF7CCFD2846002263
:10222C008021FFF7C7FD012240213046FFF7C2FD98
:10223C000020FFF701FE204600228021FFF7BAFDA7
:10224C00204601228021FFF7B5FD2846012280217E
:10225C00FFF7B0FD284600228021FFF7ABFD0122DD
:10226C0040213046FFF7A6FD3C20FFF7E5FD204658
:10227C0000228021FFF79EFD204601228021FFF7DE
:10228C0099FD284601228021FFF794FD2846002263
:10229C008021FFF78FFD012240213046FFF78AFD98
:1022AC000F20FFF7C9FD204600228021FFF782FD99
:1022BC00204601228021FFF77DFD28460122802146
:1022CC00FFF778FD284600228021FFF773FD0122DD
:1022DC0040213046FFF76EFD8F20FFF7ADFD204605
:1022EC0000228021FFF766FD204601228021FFF7A6
:1022FC0061FD284601228021FFF75CFD2846002263
:10230C008021FFF757FD002240213046FFF752FD98
:10231C00F220FFF791FD204600228021FFF74AFDB5
:10232C00204601228021FFF745FD2846012280210D
:10233C00FFF740FD284600228021FFF73BFD0122DC
:10234C0040213046FFF736FD1820FFF775FD20467B
:10235C0000228021FFF72EFD204601228021FFF76D
:10236C0029FD284601228021FFF724FD2846002262
:10237C008021FFF71FFD012240213046FFF71AFD97
:10238C00A320FFF759FD204600228021FFF712FD04
:10239C00204601228021FFF70DFD284601228021D5
:1023AC00FFF708FD284600228021FFF703FD0122DC
:1023BC0040213046FFF7FEFC1220FFF73DFD204682
:1023CC0000228021FFF7F6FC204601228021FFF736
:1023DC00F1FC284601228021FFF7ECFC2846002264
:1023EC008021FFF7E7FC012240213046FFF7E2FC99
:1023FC000220FFF721FD204600228021FFF7DAFCA6
:10240C00204601228021FFF7D5FC2846012280219D
:10241C00FFF7D0FC284600228021FFF7CBFC0122DD
:10242C0040213046FFF7C6FCB220FFF705FD2046E1
:10243C0000228021FFF7BEFC204601228021FFF7FD
:10244C00B9FC284601228021FFF7B4FC2846002263
:10245C008021FFF7AFFC012240213046FFF7AAFC98
:10246C001220FFF7E9FC204600228021FFF7A2FC96
:10247C00204601228021FFF79DFC28460122802165
:10248C00FFF798FC284600228021FFF793FC0122DD
:10249C0040213046FFF78EFCFF20FFF7CDFC204695
:1024AC0000228021FFF786FC2046012206E000BFB7
:1024BC000008014000100140000C01408021FFF792
:1024CC0079FC284601228021FFF774FC2846002263
:1024DC008021FFF76FFC012240213046FFF76AFC98
:1024EC001020FFF7A9FC204600228021FFF762FC98
:1024FC00204601228021FFF75DFC28460122802125
:10250C00FFF758FC284600228021FFF753FC0122DC
:10251C0040213046FFF74EFC0020FFF78DFC204693
:10252C0000228021FFF746FC204601228021FFF784
:10253C0041FC284601228021FFF73CFC2846002262
:10254C008021FFF737FC002240213046FFF732FC98
:10255C00F820FFF771FC204600228021FFF72AFCAF
:10256C00204601228021FFF725FC284601228021EC
:10257C00FFF720FC284600228021FFF71BFC0122DC
:10258C0040213046FFF716FC2120FFF755FC204672
:10259C0000228021FFF70EFC204601228021FFF74C
:1025AC0009FC284601228021FFF704FC2846002262
:1025BC008021FFF7FFFB012240213046FFF7FAFB99
:1025CC000420FFF739FC204600228021FFF7F2FBA4
:1025DC00204601228021FFF7EDFB284601228021B5
:1025EC00FFF7E8FB284600228021FFF7E3FB0022DF
:1025FC0040213046FFF7DEFBF920FFF71DFC20469B
:10260C0000228021FFF7D6FB204601228021FFF714
:10261C00D1FB284601228021FFF7CCFB2846002263
:10262C008021FFF7C7FB012240213046FFF7C2FB98
:10263C000020FFF701FC204600228021FFF7BAFBA7
:10264C00204601228021FFF7B5FB2846012280217C
:10265C00FFF7B0FB284600228021FFF7ABFB0122DD
:10266C0040213046FFF7A6FB0820FFF7E5FB20468C
:10267C0000228021FFF79EFB204601228021FFF7DC
:10268C0099FB284601228021FFF794FB2846002263
:10269C008021FFF78FFB002240213046FFF78AFB99
:1026AC003620FFF7C9FB204600228021FFF782FB72
:1026BC00204601228021FFF77DFB28460122802144
:1026CC00FFF778FB284600228021FFF773FB0122DD
:1026DC0040213046FFF76EFB0820FFF7ADFB20468C
:1026EC0000228021FFF766FB204601228021FFF7A4
:1026FC0061FB284601228021FFF75CFB2846002263
:10270C008021FFF757FB002240213046FFF752FB98
:10271C00B420FFF791FB204600228021FFF74AFBF3
:10272C00204601228021FFF745FB2846012280210B
:10273C00FFF740FB284600228021FFF73BFB0122DC
:10274C0040213046FFF736FB0020FFF775FB204693
:10275C0000228021FFF72EFB204601228021FFF76B
:10276C0029FB284601228021FFF724FB2846002262
:10277C008021FFF71FFB002240213046FFF71AFB98
:10278C00C120FFF759FB204600228021FFF712FBE6
:10279C00204601228021FFF70DFB284601228021D3
:1027AC00FFF708FB284600228021FFF703FB0122DC
:1027BC0040213046FFF7FEFA4120FFF73DFB204653
:1027CC0000228021FFF7F6FA204601228021FFF734
:1027DC00F1FA284601228021FFF7ECFA2846002264
:1027EC008021FFF7E7FA002240213046FFF7E2FA9A
:1027FC00C520FFF721FB204600228021FFF7DAFAE3
:10280C00204601228021FFF7D5FA2846012280219B
:10281C00FFF7D0FA284600228021FFF7CBFA0122DD
:10282C0040213046FFF7C6FA0020FFF705FB204693
:10283C0000228021FFF7BEFA204601228021FFF7FB
:10284C00B9FA284601228021FFF7B4FA2846002263
:10285C008021FFF7AFFA012240213046FFF7AAFA98
:10286C009120FFF7E9FA204600228021FFF7A2FA17
:10287C00204601228021FFF79DFA28460122802163
:10288C00FFF798FA284600228021FFF793FA0122DD
:10289C0040213046FFF78EFA8020FFF7CDFA204614
:1028AC0000228021FFF786FA204601228021FFF7C3
:1028BC0081FA284601228021FFF77CFA2846002263
:1028CC008021FFF777FA012240213046FFF772FA98
:1028DC000020FFF7B1FA204600228021FFF76AFAA8
:1028EC00204601228021FFF765FA2846012280212B
:1028FC00FFF760FA284600228021FFF75BFA0022DE
:10290C0040213046FFF756FAE020FFF795FA2046B3
:10291C0000228021FFF74EFA204601228021FFF78A
:10292C0049FA284601228021FFF744FA2846002262
:10293C008021FFF73FFA012240213046FFF73AFA97
:10294C000F20FFF779FA204600228021FFF732FA98
:10295C00204601228021FFF72DFA284601228021F2
:10296C00FFF728FA284600228021FFF723FA0122DC
:10297C0040213046FFF71EFA1F20FFF75DFA204674
:10298C0000228021FFF716FA204601228021FFF752
:10299C0011FA284601228021FFF70CFA2846002262
:1029AC008021FFF707FA012240213046FFF702FA97
:1029BC001C20FFF741FA204600228021FFF7FAF98C
:1029CC00204601228021FFF7F5F9284601228021BB
:1029DC00FFF7F0F9284600228021FFF7EBF90122DE
:1029EC0040213046FFF7E6F90C20FFF725FA204688
:1029FC0000228021FFF7DEF9204601228021FFF71B
:102A0C00D9F9284601228021FFF7D4F92846002263
:102A1C008021FFF7CFF9012240213046FFF7CAF998
:102A2C000F20FFF709FA204600228021FFF7C2F998
:102A3C00204601228021FFF7BDF928460122802182
:102A4C00FFF7B8F9284600228021FFF7B3F90122DD
:102A5C0040213046FFF7AEF90820FFF7EDF920468C
:102A6C0000228021FFF7A6F9204601228021FFF7E2
:102A7C00A1F9284601228021FFF79CF92846002263
:102A8C008021FFF797F9012240213046FFF792F998
:102A9C004820FFF7D1F9204600228021FFF78AF960
:102AAC00204601228021FFF785F92846012280214A
:102ABC00FFF780F9284600228021FFF77BF90122DD
:102ACC0040213046FFF776F99820FFF7B5F92046FC
:102ADC0000228021FFF76EF9204601228021FFF7AA
:102AEC0069F9284601228021FFF764F92846002263
:102AFC008021FFF75FF9012240213046FFF75AF998
:102B0C003720FFF799F9204600228021FFF752F970
:102B1C00204601228021FFF74DF928460122802111
:102B2C00FFF748F9284600228021FFF743F90122DC
:102B3C0040213046FFF73EF90A20FFF77DF9204689
:102B4C0000228021FFF736F9204601228021FFF771
:102B5C0031F9284601228021FFF72CF92846002262
:102B6C008021FFF727F9012240213046FFF722F997
:102B7C001320FFF761F9204600228021FFF71AF994
:102B8C00204601228021FFF715F9284601228021D9
:102B9C00FFF710F9284600228021FFF70BF90122DC
:102BAC0040213046FFF706F90420FFF745F920468F
:102BBC0000228021FFF7FEF8204601228021FFF73A
:102BCC00F9F8284601228021FFF7F4F82846002264
:102BDC008021FFF7EFF8012240213046FFF7EAF899
:102BEC001120FFF729F9204600228021FFF7E2F897
:102BFC00204601228021FFF7DDF8284601228021A2
:102C0C00FFF7D8F8284600228021FFF7D3F80122DD
:102C1C0040213046FFF7CEF80D20FFF70DF9204686
:102C2C0000228021FFF7C6F8204601228021FFF701
:102C3C00C1F8284601228021FFF7BCF82846002263
:102C4C008021FFF7B7F8012240213046FFF7B2F898
:102C5C000020FFF7F1F8204600228021FFF7AAF8A8
:102C6C00204601228021FFF7A5F828460122802169
:102C7C00FFF7A0F8284600228021FFF79BF80022DE
:102C8C0040213046FFF796F8E120FFF7D5F82046B3
:102C9C0000228021FFF78EF8204601228021FFF7C9
:102CAC0089F8284601228021FFF784F82846002263
:102CBC008021FFF77FF8012240213046FFF77AF898
:102CCC000F20FFF7B9F8204600228021FFF772F899
:102CDC00204601228021FFF76DF828460122802131
:102CEC00FFF768F8284600228021FFF763F80122DD
:102CFC0040213046FFF75EF83220FFF79DF8204662
:102D0C0000228021FFF756F8204601228021FFF790
:102D1C0051F8284601228021FFF74CF82846002262
:102D2C008021FFF747F8012240213046FFF742F897
:102D3C002E20FFF781F8204600228021FFF73AF879
:102D4C00204601228021FFF735F8284601228021F8
:102D5C00FFF730F8284600228021FFF72BF80122DC
:102D6C0040213046FFF726F80B20FFF765F8204688
:102D7C0000228021FFF71EF8204601228021FFF758
:102D8C0019F8284601228021FFF714F82846002262
:102D9C008021FFF70FF8012240213046FFF70AF897
:102DAC000D20FFF749F8204600228021FFF702F89A
:102DBC00204601228021FEF7FDFF284601228021BA
:102DCC00FEF7F8FF284600228021FEF7F3FF0122D0
:102DDC0040213046FEF7EEFF0520FFF72DF8204688
:102DEC0000228021FEF7E6FF204601228021FEF71B
:102DFC00E1FF284601228021FEF7DCFF2846002255
:102E0C008021FEF7D7FF012240213046FEF7D2FF8A
:102E1C004720FFF711F8204600228021FEF7CAFF59
:102E2C00204601228021FEF7C5FF28460122802181
:102E3C00FEF7C0FF284600228021FEF7BBFF0122CF
:102E4C0040213046FEF7B6FF7520FEF7F5FF204611
:102E5C0000228021FEF7AEFF204601228021FEF7E2
:102E6C00A9FF284601228021FEF7A4FF2846002254
:102E7C008021FEF79FFF012240213046FEF79AFF8A
:102E8C003720FEF7D9FF204600228021FEF792FF63
:102E9C00204601228021FEF78DFF28460122802149
:102EAC00FEF788FF284600228021FEF783FF0122CF
:102EBC0040213046FEF77EFF0620FEF7BDFF204680
:102ECC0000228021FEF776FF204601228021FEF7AA
:102EDC0071FF284601228021FEF76CFF2846002254
:102EEC008021FEF767FF012240213046FEF762FF8A
:102EFC001020FEF7A1FF204600228021FEF75AFF8A
:102F0C00204601228021FEF755FF28460122802110
:102F1C00FEF750FF284600228021FEF74BFF0122CE
:102F2C0040213046FEF746FF0320FEF785FF204682
:102F3C0000228021FEF73EFF204601228021FEF771
:102F4C0039FF284601228021FEF734FF2846002253
:102F5C008021FEF72FFF012240213046FEF72AFF89
:102F6C002420FEF769FF204600228021FEF722FF75
:102F7C00204601228021FEF71DFF284601228021D8
:102F8C00FEF718FF284600228021FEF713FF0122CE
:102F9C0040213046FEF70EFF2020FEF74DFF204665
:102FAC0000228021FEF706FF204601228021FEF739
:102FBC0001FF284601228021FEF7FCFE2846002254
:102FCC008021FEF7F7FE012240213046FEF7F2FE8B
:102FDC000020FEF731FF204600228021FEF7EAFE9A
:102FEC00204601228021FEF7E5FE284601228021A1
:102FFC00FEF7E0FE284600228021FEF7DBFE0022D1
:10300C0040213046FEF7D6FE3A20FEF715FF20464B
:10301C0000228021FEF7CEFE204601228021FEF701
:10302C00C9FE284601228021FEF7C4FE2846002254
:10303C008021FEF7BFFE012240213046FEF7BAFE8A
:10304C005520FEF7F9FE204600228021FEF7B2FE45
:10305C00204601228021FEF7ADFE28460122802168
:10306C00FEF7A8FE284600228021FEF7A3FE0022D0
:10307C0040213046FEF79EFE1120FEF7DDFE204675
:10308C0000228021FEF796FE204601228021FEF7C9
:10309C0091FE284601228021FEF78CFE2846002254
:1030AC008021FEF787FE002240213046FEF782FE8B
:1030BC003620FEF7C1FE204600228021FEF77AFE64
:1030CC00204601228021FEF775FE28460122802130
:1030DC00FEF770FE284600228021FEF76BFE0122CF
:1030EC0040213046FEF766FE2820FEF7A5FE20465E
:1030FC0000228021FEF75EFE204601228021FEF791
:10310C0059FE012280212846FEF754FE7820FDF757
:10311C0087FD284600228021FEF74CFE002240212C
:10312C003046FEF747FE2920FEF786FE2046002299
:10313C008021FEF73FFE204601228021FEF73AFE59
:10314C002846BDE8704001228021FEF733BE00BF47
:10315C002DE9F041804615460F461C460022802181
:10316C005348BDF81860FEF725FE00224021514857
:10317C00FEF720FE3A20FEF75FFE002280214E482B
:10318C00FEF718FE012280214B48FEF713FE0122A8
:10319C0080214748FEF70EFE002280214448FEF7AE
:1031AC0009FE012240214348FEF704FE5520FEF79C
:1031BC0043FE002280214048FEF7FCFD01228021C5
:1031CC003D48FEF7F7FD012280213948FEF7F2FD5C
:1031DC00002280213648FEF7EDFD002240213548C3
:1031EC00FEF7E8FD2A20FEF727FE00228021324858
:1031FC00FEF7E0FD012280212F48FEF7DBFD0122C6
:10320C0080212B48FEF7D6FD4046FEF71FFF2846CF
:10321C00FEF71CFF002280212548FEF7CBFD002283
:10322C0040212448FEF7C6FD2B20FEF705FE0022A8
:10323C0080212148FEF7BEFD012280211E48FEF7A9
:10324C00B9FD012280211A48FEF7B4FD3846FEF77D
:10325C00FDFE2046FEF7FAFE002280211448FEF700
:10326C00A9FDA5EB0805002240211248E41BFEF73E
:10327C00A1FD04FB05F52C20FEF7DEFD00228021CC
:10328C000D48FEF797FD012280210B48FEF792FDB9
:10329C00012280210648FEF78DFD002D06DD00245D
:1032AC0030460134FEF7D2FEAC42F9D1BDE8F081D4
:1032BC0000080140000C0140001001400E4B82B090
:1032CC009A690E4942F001029A619A6902F0010270
:1032DC000092009ADA6942F08052DA61DB6903F0FD
:1032EC0080530193019B4B6823F0E06343F08063B0
:1032FC004B6002B0704700BF00100240000001405C
:10330C00002370B5164A016886B09142CDE90233AC
:10331C00CDE9043301D006B070BD0C240225022681
:10332C0003F1804303F50433DA690E4842F40032AA
:10333C00DA61DA6902A902F400320092009A9A6901
:10334C0042F004029A619B69CDE9024503F0040343
:10335C000193019B0596FEF721FB06B070BD00BFE3
:10336C000044004000080140024B01461868FDF77C
:10337C00A1B800BF0C000020F8B500BFF8BC08BC19
:10338C009E467047F8B500BFF8BC08BC9E46704717
:10339C0000000000000000000102030406070809F9
:1033AC0000000000010203040203040506070809DB
:1033BC000A0B0C0D0E0F1010010200005245414477
:0433CC0059000000A4
:0833D000F1010008750100087D
:0433D8004D0100089B
:1033DC00010000001000000000127A001000002014
:1033EC0000000000E40500204C060020B40600207C
:1033FC0000000000000000000000000000000000C1
:10340C0000000000000000000000000000000000B0
:10341C0000000000000000000000000000000000A0
:10342C000000000000000000000000000000000090
:10343C000000000000000000000000000000000080
:10344C000000000000000000000000000000000070
:10345C000000000000000000000000000000000060
:10346C000000000000000000000000000000000050
:10347C00000000000000000001000000000000003F
:10348C000E33CDAB34126DE6ECDE05000B00000004
:10349C000000000000000000000000000000000020
:1034AC000000000000000000000000000000000010
:1034BC000000000000000000000000000000000000
:1034CC0000000000000000000000000000000000F0
:1034DC0000000000000000000000000000000000E0
:1034EC0000000000000000000000000000000000D0
:1034FC0000000000000000000000000000000000C0
:10350C0000000000000000000000000000000000AF
:10351C00000000000000000000000000000000009F
:10352C0024070020FFFFFFFF000002000000000046
:10353C00000000000000000060010020600100207D
:10354C00680100206801002070010020700100203B
:10355C0078010020780100208001002080010020EB
:10356C00880100208801002090010020900100209B
:10357C009801002098010020A0010020A00100204B
:10358C00A8010020A8010020B0010020B0010020FB
:10359C00B8010020B8010020C0010020C0010020AB
:1035AC00C8010020C8010020D0010020D00100205B
:1035BC00D8010020D8010020E0010020E00100200B
:1035CC00E8010020E8010020F0010020F0010020BB
:1035DC00F8010020F8010020000200200002002069
:1035EC000802002008020020100200201002002017
:1035FC0018020020180200202002002020020020C7
:10360C002802002028020020300200203002002076
:10361C003802002038020020400200204002002026
:10362C0048020020480200205002002050020020D6
:10363C005802002058020020600200206002002086
:10364C006802002068020020700200207002002036
:10365C0078020020780200208002002080020020E6
:10366C008802002088020020900200209002002096
:10367C009802002098020020A0020020A002002046
:10368C00A8020020A8020020B0020020B0020020F6
:10369C00B8020020B8020020C0020020C0020020A6
:1036AC00C8020020C8020020D0020020D002002056
:1036BC00D8020020D8020020E0020020E002002006
:1036CC00E8020020E8020020F0020020F0020020B6
:1036DC00F8020020F8020020000300200003002064
:1036EC000803002008030020100300201003002012
:1036FC0018030020180300202003002020030020C2
:10370C002803002028030020300300203003002071
:10371C003803002038030020400300204003002021
:10372C0048030020480300205003002050030020D1
:10373C005803002058030020600300206003002081
:10374C006803002068030020700300207003002031
:10375C0078030020780300208003002080030020E1
:10376C008803002088030020900300209003002091
:10377C009803002098030020A0030020A003002041
:10378C00A8030020A8030020B0030020B0030020F1
:10379C00B8030020B8030020C0030020C0030020A1
:1037AC00C8030020C8030020D0030020D003002051
:1037BC00D8030020D8030020E0030020E003002001
:1037CC00E8030020E8030020F0030020F0030020B1
:1037DC00F8030020F803002000040020000400205F
:1037EC00080400200804002010040020100400200D
:1037FC0018040020180400202004002020040020BD
:10380C00280400202804002030040020300400206C
:10381C00380400203804002040040020400400201C
:10382C0048040020480400205004002050040020CC
:10383C00580400205804002060040020600400207C
:10384C00680400206804002070040020700400202C
:10385C0078040020780400208004002080040020DC
:10386C00880400208804002090040020900400208C
:10387C009804002098040020A0040020A00400203C
:10388C00A8040020A8040020B0040020B0040020EC
:10389C00B8040020B8040020C0040020C00400209C
:1038AC00C8040020C8040020D0040020D00400204C
:1038BC00D8040020D8040020E0040020E0040020FC
:1038CC00E8040020E8040020F0040020F0040020AC
:1038DC00F8040020F804002000050020000500205A
:1038EC000805002008050020100500201005002008
:1038FC0018050020180500202005002020050020B8
:10390C002805002028050020300500203005002067
:10391C003805002038050020400500204005002017
:10392C0048050020480500205005002050050020C7
:08393C00580500205805002089
:0400000508001DF9D9
:00000001FF
