:020000040800F2
:1000000000500020F1170008A1040008A90400080E
:10001000B1040008B9040008C10400080000000091
:10002000000000000000000000000000C9040008FB
:10003000D504000800000000E1040008ED040008F9
:10004000391800083918000839180008391800084C
:10005000391800083918000839180008391800083C
:10006000391800083918000839180008391800082C
:10007000391800083918000839180008391800081C
:10008000391800083918000839180008391800080C
:1000900039180008391800083918000839180008FC
:1000A00039180008391800083918000839180008EC
:1000B00039180008391800083918000839180008DC
:1000C00039180008391800083918000839180008CC
:1000D00039180008391800083918000839180008BC
:1000E000F904000839180008391800080000000059
:1000F0000000000000000000000000000000000000
:0C01000000000000000000005FF808F1A3
:10010C000348044B834202D0034B03B1184770479A
:10011C001000002010000020000000000548064BD5
:10012C001B1AD90F01EBA301491002D0034B03B1E9
:10013C00184770471000002010000020000000003D
:10014C0010B5064C237843B9FFF7DAFF044B13B113
:10015C000448AFF300800123237010BD5C00002025
:10016C0000000000141F000808B5054B1BB1054921
:10017C000548AFF30080BDE80840FFF7CFBF00BFD4
:10018C000000000060000020141F000870B58607F6
:10019C0047D0541E002A3ED00346CAB201E0013CAF
:1001AC0039D303F8012B9D07F9D1032C2CD9CDB2EF
:1001BC0005EB05250F2C1A4605EB054534D9A4F1A2
:1001CC00100C2CF00F0603F1100EB6444FEA1C1C59
:1001DC00C2E90055C2E9025510327245F8D10CF152
:1001EC00010214F00C0F03EB021204F00F0C13D0ED
:1001FC00ACF1040323F003030433134442F8045B0F
:10020C009342FBD10CF003042CB1C9B21C4403F88B
:10021C00011BA342FBD170BD64461346002CF4D1E4
:10022C00F9E703461446C0E7A446E1E770B50F4B67
:10023C000F4DAB42A3EB050607D00024B61055F8C2
:10024C00043B01349847A642F9D801F05DFE094DF4
:10025C00094B5E1BAB424FEAA60606D0002455F8AC
:10026C00043B01349847A642F9D870BD581F0008CA
:10027C00581F0008581F0008601F0008704700BF77
:10028C00704700BF024B13B1024800F005B870472D
:10029C0000000000B1020008002301461A4618466F
:1002AC0000F014B838B5074D074C2C1BA41005D022
:1002BC00013C55F8043D9847002CF9D1BDE8384075
:1002CC0001F028BE641F0008601F00082DE9F843E8
:1002DC001B4D0646286898460F469146FFF7CEFF01
:1002EC00184B1C681CB3286865681F2D22DC4EB99E
:1002FC006B1C0235636044F82570FFF7C1FF0020CA
:10030C00BDE8F883012304EB8501C1F88890D4F88B
:10031C008821AB401A43022EC4F88821C1F8088109
:10032C00E6D1D4F88C211A43C4F88C21E0E7064CB2
:10033C001C60D8E7FFF7A4FF4FF0FF30E0E700BFE9
:10034C000C0000207C0000208000002080B500AF55
:10035C00084B1B68074A43F010031360032000F09E
:10036C0099F9002000F026F801F05EFD00231846F4
:10037C0080BD00BF0020024080B500AF094B4FF09C
:10038C00FF321A61074B00221A61064B4FF0FF3205
:10039C00DA60044B0022DA6000F006F800231846FD
:1003AC0080BD00BF0010024080B400AF00BFBD464E
:1003BC0080BC704780B582B000AF7860124B1A6871
:1003CC00124B1B7819464FF47A73B3FBF1F3B2FB63
:1003DC00F3F3184600F093F90346002B01D00123E8
:1003EC000EE07B680F2B0AD8002279684FF0FF30A3
:1003FC0000F05BF9064A7B681360002300E00123E0
:10040C0018460837BD4680BD0800002004000020B7
:10041C000000002080B400AF054B1B781A46054B3A
:10042C001B681344034A136000BFBD4680BC704771
:10043C00040000201000002080B400AF024B1B68A9
:10044C001846BD4680BC70471000002080B584B0B3
:10045C0000AF7860FFF7F0FFB8607B68FB60FB686B
:10046C00B3F1FF3F05D00A4B1B781A46FB681344C7
:10047C00FB6000BFFFF7E0FF0246BB68D31AFA68C7
:10048C009A42F7D800BF00BF1037BD4680BD00BFF1
:10049C000400002080B400AF00BFFDE780B400AFC3
:1004AC0000BFFDE780B400AF00BFFDE780B400AF34
:1004BC0000BFFDE780B400AF00BFFDE780B400AF24
:1004CC0000BFBD4680BC704780B400AF00BFBD46C6
:1004DC0080BC704780B400AF00BFBD4680BC704785
:1004EC0080B500AFFFF796FF00BF80BD80B500AFB1
:1004FC004FF4005001F054F900BF80BD80B485B0BA
:10050C0000AF78607B6803F00703FB600C4BDB6883
:10051C00BB60BA684FF6FF031340BB60FB681A025E
:10052C00BB68134343F0BF6343F40033BB60044A1E
:10053C00BB68D36000BF1437BD4680BC704700BF9A
:10054C0000ED00E080B400AF044BDB681B0A03F045
:10055C0007031846BD4680BC704700BF00ED00E0A5
:10056C0080B483B000AF0346FB7197F90730002BC2
:10057C000BDBFB7903F01F02064997F907305B0987
:10058C00012000FA02F241F8232000BF0C37BD46CF
:10059C0080BC704700E100E080B483B000AF03463C
:1005AC003960FB7197F90730002B0ADB3B68DAB234
:1005BC000C4997F907301201D2B20B4483F800238F
:1005CC000AE03B68DAB20849FB7903F00F03043BFD
:1005DC001201D2B20B441A7600BF0C37BD4680BC58
:1005EC00704700BF00E100E000ED00E080B489B08E
:1005FC0000AFF860B9607A60FB6803F00703FB6139
:10060C00FB69C3F10703042B28BF0423BB61FB69FF
:10061C000433062B02D9FB69033B00E000237B610A
:10062C004FF0FF32BB6902FA03F3DA43BB681A409E
:10063C007B699A404FF0FF317B6901FA03F3D94390
:10064C007B680B40134318462437BD4680BC70476B
:10065C0080B582B000AF78607B68013BB3F1807FDE
:10066C0001D301230FE00A4A7B68013B53600F2141
:10067C004FF0FF30FFF790FF054B00229A60044BC0
:10068C0007221A60002318460837BD4680BD00BFFC
:10069C0010E000E080B582B000AF78607868FFF7BA
:1006AC002DFF00BF0837BD4680BD80B586B000AFBA
:1006BC000346B9607A60FB7300237B61FFF742FF4E
:1006CC0078617A68B9687869FFF790FF024697F904
:1006DC000F3011461846FFF75FFF00BF1837BD46B5
:1006EC0080BD80B582B000AF0346FB7197F907302F
:1006FC001846FFF735FF00BF0837BD4680BD80B5F3
:10070C0082B000AF78607868FFF7A2FF0346184606
:10071C000837BD4680BD80B400AF00BFBD4680BC6D
:10072C007047000080B586B000AF78607B68002B06
:10073C0001D1012372E27B681B6803F00103002BDB
:10074C0000F08780924B5B6803F00C03042B0CD0F9
:10075C008F4B5B6803F00C03082B12D18C4B5B683E
:10076C0003F48033B3F5803F0BD1894B1B6803F442
:10077C000033002B6CD07B685B68002B68D10123A5
:10078C004CE27B685B68B3F5803F06D1804B1B68FD
:10079C007F4A43F4803313602EE07B685B68002B48
:1007AC000CD17B4B1B687A4A23F480331360784B53
:1007BC001B68774A23F4802313601DE07B685B6819
:1007CC00B3F5A02F0CD1724B1B68714A43F48023F4
:1007DC0013606F4B1B686E4A43F4803313600BE05D
:1007EC006B4B1B686A4A23F480331360684B1B689D
:1007FC00674A23F4802313607B685B68002B13D05B
:10080C00FFF71AFE386108E0FFF716FE02463B6957
:10081C00D31A642B01D9032300E25D4B1B6803F44C
:10082C000033002BF0D014E0FFF706FE386108E02F
:10083C00FFF702FE02463B69D31A642B01D903234E
:10084C00ECE1534B1B6803F40033002BF0D100E0B8
:10085C0000BF7B681B6803F00203002B63D04C4B7A
:10086C005B6803F00C03002B0BD0494B5B6803F067
:10087C000C03082B1CD1464B5B6803F48033002B14
:10088C0016D1434B1B6803F00203002B05D07B6889
:10089C001B69012B01D00123C0E13D4B1B6823F0E8
:1008AC00F8027B685B69DB00394913430B603AE063
:1008BC007B681B69002B20D0364B01221A60FFF796
:1008CC00BBFD386108E0FFF7B7FD02463B69D31A60
:1008DC00022B01D90323A1E12D4B1B6803F002036A
:1008EC00002BF0D02A4B1B6823F0F8027B685B6965
:1008FC00DB00274913430B6015E0264B00221A60DE
:10090C00FFF79AFD386108E0FFF796FD02463B6958
:10091C00D31A022B01D9032380E11D4B1B6803F072
:10092C000203002BF0D17B681B6803F00803002B3B
:10093C003AD07B689B69002B19D0174B01221A60A7
:10094C00FFF77AFD386108E0FFF776FD02463B6958
:10095C00D31A022B01D9032360E10D4B5B6A03F020
:10096C000203002BF0D0012000F006FB1CE00A4B28
:10097C0000221A60FFF760FD38610FE0FFF75CFDA5
:10098C0002463B69D31A022B08D9032346E100BF68
:10099C00001002400000424280044242924B5B6ACB
:1009AC0003F00203002BE9D17B681B6803F00403FE
:1009BC00002B00F0A6800023FB758B4BDB6903F04A
:1009CC008053002B0DD1884BDB69874A43F0805351
:1009DC00D361854BDB6903F08053BB60BB6801239B
:1009EC00FB75824B1B6803F48073002B18D17F4B73
:1009FC001B687E4A43F480731360FFF71DFD38615A
:100A0C0008E0FFF719FD02463B69D31A642B01D9A4
:100A1C00032303E1754B1B6803F48073002BF0D0A8
:100A2C007B68DB68012B06D16F4B1B6A6E4A43F067
:100A3C00010313622DE07B68DB68002B0CD16A4B41
:100A4C001B6A694A23F001031362674B1B6A664AEF
:100A5C0023F0040313621CE07B68DB68052B0CD1CC
:100A6C00614B1B6A604A43F0040313625E4B1B6AC2
:100A7C005D4A43F0010313620BE05B4B1B6A5A4A5D
:100A8C0023F001031362584B1B6A574A23F00403EB
:100A9C0013627B68DB68002B15D0FFF7CDFC386147
:100AAC000AE0FFF7C9FC02463B69D31A41F28832CF
:100ABC00934201D90323B1E04B4B1B6A03F00203B1
:100ACC00002BEED014E0FFF7B7FC38610AE0FFF71B
:100ADC00B3FC02463B69D31A41F28832934201D9E6
:100AEC0003239BE0404B1B6A03F00203002BEED167
:100AFC00FB7D012B05D13C4BDB693B4A23F080533A
:100B0C00D3617B68DB69002B00F08780364B5B6818
:100B1C0003F00C03082B61D07B68DB69022B46D1F8
:100B2C00334B00221A60FFF787FC386108E0FFF7AF
:100B3C0083FC02463B69D31A022B01D903236DE0D7
:100B4C00294B1B6803F00073002BF0D17B681B6AE8
:100B5C00B3F5803F08D1244B5B6823F400327B68EB
:100B6C009B68214913434B601F4B5B6823F4741241
:100B7C007B68196A7B685B6A0B431B4913434B60A8
:100B8C001B4B01221A60FFF757FC386108E0FFF796
:100B9C0053FC02463B69D31A022B01D903233DE0D7
:100BAC00114B1B6803F00073002BF0D035E0104B99
:100BBC0000221A60FFF740FC386108E0FFF73CFCAC
:100BCC0002463B69D31A022B01D9032326E0064BBC
:100BDC001B6803F00073002BF0D11EE07B68DB690F
:100BEC00012B07D1012319E00010024000700040D6
:100BFC00600042420B4B5B68FB60FB6803F4803285
:100C0C007B681B6A9A4206D1FB6803F470127B68FE
:100C1C005B6A9A4201D0012300E000231846183782
:100C2C00BD4680BD0010024080B584B000AF786036
:100C3C0039607B68002B01D10123D0E06A4B1B6823
:100C4C0003F007033A689A4210D9674B1B6823F0EC
:100C5C00070265493B6813430B60634B1B6803F049
:100C6C0007033A689A4201D00123B8E07B681B68FD
:100C7C0003F00203002B20D07B681B6803F00403F5
:100C8C00002B05D0594B5B68584A43F4E063536022
:100C9C007B681B6803F00803002B05D0534B5B6883
:100CAC00524A43F460535360504B5B6823F0F0029C
:100CBC007B689B684D4913434B607B681B6803F052
:100CCC000103002B40D07B685B68012B07D1474B9D
:100CDC001B6803F40033002B15D101237FE07B68E4
:100CEC005B68022B07D1414B1B6803F00073002B90
:100CFC0009D1012373E03D4B1B6803F00203002B69
:100D0C0001D101236BE0394B5B6823F003027B6854
:100D1C005B68364913434B60FFF78EFBF8600AE0C3
:100D2C00FFF78AFB0246FB68D31A41F288329342E2
:100D3C0001D9032353E02D4B5B6803F00C027B6855
:100D4C005B689B009A42EBD1274B1B6803F00703AF
:100D5C003A689A4210D2244B1B6823F007022249AE
:100D6C003B6813430B60204B1B6803F007033A6886
:100D7C009A4201D0012332E07B681B6803F0040324
:100D8C00002B08D0194B5B6823F4E0627B68DB68AE
:100D9C00164913434B607B681B6803F00803002B58
:100DAC0009D0124B5B6823F460527B681B69DB0033
:100DBC000E4913434B6000F059F802460B4B5B682D
:100DCC001B0903F00F030A49CB5C22FA03F3094A0F
:100DDC001360094B1B681846FFF7ECFA0023184602
:100DEC001037BD4680BD00BF0020024000100240FD
:100DFC002C1F0008080000200000002080B58AB0DD
:100E0C0000AFF860B9607A6007F1180300221A602D
:100E1C005A609A60DA600223FB6103237B62002331
:100E2C003B624FF48073BB610E4B9B690D4A43F0E0
:100E3C00040393610B4B9B6903F004037B617B6997
:100E4C0007F118031946084800F0DEFA054B5B68F9
:100E5C0023F0E0620349BB6813434B6000BF2837A3
:100E6C00BD4680BD001002400008014080B487B030
:100E7C0000AF0023FB600023BB6000237B610023D9
:100E8C007B6000233B611E4B5B68FB60FB6803F0DF
:100E9C000C03042B02D0082B03D027E0194B3B6129
:100EAC0027E0FB689B0C03F00F03174AD35C7B60B5
:100EBC00FB6803F48033002B10D0114B5B685B0C88
:100ECC0003F00103114AD35CBB607B680D4A03FB42
:100EDC0002F2BB68B2FBF3F37B6104E07B680C4A63
:100EEC0002FB03F37B617B693B6102E0054B3B61D9
:100EFC0000BF3B6918461C37BD4680BC704700BF1D
:100F0C000010024000127A00441F0008541F000811
:100F1C0000093D0080B400AF024B1B681846BD466B
:100F2C0080BC70470800002080B500AFFFF7F2FFCF
:100F3C000246054B5B681B0A03F007030349CB5CB5
:100F4C0022FA03F3184680BD001002403C1F000833
:100F5C0080B500AFFFF7DEFF0246054B5B68DB0A8E
:100F6C0003F007030349CB5C22FA03F3184680BD58
:100F7C00001002403C1F000880B485B000AF7860C0
:100F8C000A4B1B680A4AA2FB03235B0A7A6802FB22
:100F9C0003F3FB6000BFFB685A1EFA60002BF9D10B
:100FAC0000BF00BF1437BD4680BC7047080000204E
:100FBC00D34D621080B582B000AF78607B68002B97
:100FCC0001D1012342E07B6893F84130DBB2002B66
:100FDC0006D17B68002283F84020786800F056FF29
:100FEC007B68242283F841207B681B68DA687B6865
:100FFC001B6822F40052DA60786800F02BF87B68EA
:10100C001B681A697B681B6822F490421A617B6822
:10101C001B685A697B681B6822F02A025A617B683C
:10102C001B68DA687B681B6842F40052DA607B68E4
:10103C0000225A647B68202283F841207B6820229E
:10104C0083F842207B6800225A6300231846083735
:10105C00BD4680BD80B584B000AF78607B681B68EE
:10106C001B6923F440517B68DA687B681B680A4370
:10107C001A617B689A687B681B691A437B685B6999
:10108C001343BB607B681B68DB6823F4B05323F00D
:10109C000C037A681268B9680B43D3607B681B68D1
:1010AC005B6923F440717B689A697B681B680A430F
:1010BC005A617B681B682C4A934203D1FFF748FFA7
:1010CC00F86002E0FFF730FFF860FA6813469B0007
:1010DC0013449A001A447B685B689B00B2FBF3F3E1
:1010EC00224AA2FB03235B091901FA6813469B00F1
:1010FC0013449A001A447B685B689B00B2FBF3F2C2
:10110C001A4BA3FB02035B09642000FB03F3D31A05
:10111C001B013233154AA2FB03235B0903F0F003D6
:10112C001944FA6813469B0013449A001A447B68CE
:10113C005B689B00B2FBF3F20C4BA3FB02035B0955
:10114C00642000FB03F3D31A1B013233074AA2FBC2
:10115C0003235B0903F00F027B681B680A449A6047
:10116C0000BF1037BD4680BD003801401F85EB51D4
:10117C0080B582B002AFFFF7E9F800F025F800F077
:10118C0095F800F069F800F0BDFC41F28830FFF7EB
:10119C005DF9002300934FF4A0734FF4F07200211B
:1011AC00002000F0FFFD4FF4FC630093C8234FF4C4
:1011BC008C727821C82000F0F5FD00F04FFBC820A0
:1011CC00FFF744F900BFF8E780B590B000AF07F126
:1011DC001803282200211846FEF7D8FF3B1D0022D9
:1011EC001A605A609A60DA601A610223BB610123AB
:1011FC00BB621023FB6202237B630023BB634FF4AF
:10120C006013FB6307F118031846FFF78BFA0346CC
:10121C00002B01D000F0F2F80F237B600223BB609F
:10122C000023FB604FF480633B6100237B613B1D1B
:10123C0002211846FFF7F8FC0346002B01D000F002
:10124C00DDF800224FF0E0610020FFF7D7FD00BF72
:10125C004037BD4680BD000080B500AF114B124A2F
:10126C001A60104B4FF4E1325A600E4B00229A6018
:10127C000C4B0022DA600B4B00221A61094B0C223A
:10128C005A61084B00229A61064B0022DA6105482C
:10129C00FFF790FE0346002B01D000F0AFF800BF23
:1012AC0080BD00BF140000200044004080B588B011
:1012BC0000AF07F1100300221A605A609A60DA60DE
:1012CC00494B9B69484A43F010039361464B9B6919
:1012DC0003F01003FB60FB68434B9B69424A43F0ED
:1012EC0020039361404B9B6903F02003BB60BB68F8
:1012FC003D4B9B693C4A43F0040393613A4B9B6919
:10130C0003F004037B607B68374B9B69364A43F0E0
:10131C0008039361344B9B6903F008033B603B6803
:10132C00002240F2F261314800F009FA002240F24A
:10133C0061712F4800F003FA002280212D4800F043
:10134C00FEF94FF400533B612B4B7B610023BB61D7
:10135C0007F110031946274800F056F840F2F263E3
:10136C003B6101237B610023BB610323FB6107F11C
:10137C00100319461D4800F047F840F261733B61B9
:10138C0001237B610023BB610323FB6107F1100385
:10139C001946174800F038F880233B6101237B6124
:1013AC000023BB610323FB6107F1100319461148AD
:1013BC0000F02AF84FF480733B6102237B61022317
:1013CC00FB6107F110031946084800F01DF80022D4
:1013DC0000212820FFF769F92820FFF782F900BFC8
:1013EC002037BD4680BD00BF001002400008014000
:1013FC00000C0140001001400000111080B400AF3F
:10140C0072B600BF00BFFDE780B48BB000AF786050
:10141C00396000237B6200233B6269E101227B6A15
:10142C0002FA03F3FB613B681B68FA691340BB616A
:10143C00BA69FB699A4240F058813B685B689A4AEA
:10144C0093425ED0984A934275D8984A934258D0AA
:10145C00964A93426FD8964A934252D0944A9342FA
:10146C0069D8944A93424CD0924A934263D8924A98
:10147C00934246D0904A93425DD8122B2AD8122B15
:10148C0059D801A252F823F00F150008E9140008EE
:10149C00FB1400083D15000843150008431500080F
:1014AC0043150008431500084315000843150008B0
:1014BC0043150008431500084315000843150008A0
:1014CC00431500084315000843150008F1140008E3
:1014DC0005150008794A934213D02CE03B68DB6871
:1014EC003B6229E03B68DB6804333B6224E03B68E9
:1014FC00DB6808333B621FE03B68DB680C333B6204
:10150C001AE03B689B68002B02D104233B6213E07A
:10151C003B689B68012B05D108233B627B68FA6909
:10152C001A6109E008233B627B68FA695A6103E09F
:10153C0000233B6200E000BFBB69FF2B01D87B6836
:10154C0001E07B6804337B61BB69FF2B02D87B6AAB
:10155C009B0002E07B6A083B9B003B617B691A683D
:10156C000F213B6901FA03F3DB431A40396A3B69EB
:10157C0001FA03F31A437B691A603B685B6803F05A
:10158C008053002B00F0B1804D4B9B694C4A43F0CB
:10159C00010393614A4B9B6903F00103BB60BB6879
:1015AC00484A7B6A9B08023352F82330FB607B6A03
:1015BC0003F003039B000F2202FA03F3DB43FA68E8
:1015CC001340FB607B68404A934213D07B683F4AD0
:1015DC0093420DD07B683E4A934207D07B683D4ACC
:1015EC00934201D1032306E0042304E0022302E02A
:1015FC00012300E000237A6A02F003029200934078
:10160C00FA681343FB602F497B6A9B080233FA6824
:10161C0041F823203B685B6803F48013002B06D051
:10162C002D4B9A682C49BB6913438B6006E02A4BFF
:10163C009A68BB69DB43284913408B603B685B6845
:10164C0003F40013002B06D0234BDA682249BB6944
:10165C001343CB6006E0204BDA68BB69DB431E49C1
:10166C001340CB603B685B6803F40033002B06D05F
:10167C00194B5A681849BB6913434B6006E0164B6B
:10168C005A68BB69DB43144913404B603B685B6889
:10169C0003F48033002B21D00F4B1A680E49BB6921
:1016AC0013430B6021E000BF00003210000031102A
:1016BC000000221000002110000012100000111078
:1016CC00001002400000014000080140000C0140E5
:1016DC000010014000140140000401400B4B1A683B
:1016EC00BB69DB43094913400B607B6A01337B62A6
:1016FC003B681A687B6A22FA03F3002B7FF48EAEE8
:10170C0000BF00BF2C37BD4680BC704700040140B1
:10171C0080B485B000AF78600B467B807B689A689C
:10172C007B881340002B02D00123FB7301E00023C4
:10173C00FB73FB7B18461437BD4680BC704780B4E6
:10174C0083B000AF78600B467B8013467B707B7850
:10175C00002B03D07A887B681A6103E07B881A041B
:10176C007B681A6100BF0C37BD4680BC704780B4E3
:10177C0085B000AF78600B467B807B68DB68FB60D4
:10178C007A88FB6813401A04FB68D9437B880B40AA
:10179C001A437B681A6100BF1437BD4680BC704782
:1017AC0080B582B000AF0346FB80084B5A69FB88BA
:1017BC001340002B06D0054AFB885361FB88184662
:1017CC0000F006F800BF0837BD4680BD000401409C
:1017DC0080B483B000AF0346FB8000BF0C37BD461E
:1017EC0080BC7047FEF797FF0B480C490C4A00234E
:1017FC0002E0D458C4500433C4188C42F9D3094ABB
:10180C00094C002301E013600432A242FBD3FEF723
:10181C000DFDFFF7ADFC704700000020100000200C
:10182C00641F00081000002010020020FEE780B4A6
:10183C0085B000AF0346B9607A60FB81FB891B0A57
:10184C009BB2DAB2BB681A70FB89DAB27B681A7089
:10185C0000BF1437BD4680BC7047000080B500AF98
:10186C004FF400510B48FFF753FF0346002B0FD1E9
:10187C0000F088FAFEF780FD00F010F820210648F1
:10188C00FFF775FF4FF49670FEF7E0FD00BFF5E72C
:10189C0000BF80BD001001400008014080B586B03B
:1018AC0000AF07F1080300221A605A609A60DA60F0
:1018BC00114B9B69104A43F0040393610E4B9B69D7
:1018CC0003F004037B607B68002220210B48FFF7A8
:1018DC0036FF2023BB600123FB6000233B61032305
:1018EC007B6107F1080319460448FFF78DFD00BF23
:1018FC001837BD4680BD00BF0010024000080140F3
:10190C0080B582B000AF0346FB71FB7903F0010395
:10191C00DBB21A464FF480612948FFF710FFFB79C0
:10192C005B08DBB203F00103DBB21A462021254829
:10193C00FFF705FFFB799B08DBB203F00103DBB279
:10194C001A464FF480611F48FFF7F9FEFB79DB085C
:10195C00DBB203F00103DBB21A464FF400711948F5
:10196C00FFF7EDFEFB791B09DBB203F00103DBB2E1
:10197C001A464FF480711348FFF7E1FEFB795B09BF
:10198C00DBB203F00103DBB21A4602210C48FFF76D
:10199C00D6FEFB799B09DBB203F00103DBB21A46DE
:1019AC0010210748FFF7CBFEFB79DB09DBB21A46A7
:1019BC0001210448FFF7C3FE00BF0837BD4680BDB8
:1019CC0000080140000C014080B582B000AF034616
:1019DC00FB71002280210F48FFF7B1FE002240214D
:1019EC000D48FFF7ACFEFB791846FFF789FF002284
:1019FC0080210A48FFF7A3FE012280210748FFF748
:101A0C009EFE012280210348FFF799FE00BF083794
:101A1C00BD4680BD00080140000C01400010014093
:101A2C0080B582B000AF0346FB71002280210F48C5
:101A3C00FFF785FE012240210D48FFF780FEFB7960
:101A4C001846FFF75DFF002280210A48FFF777FE5A
:101A5C00012280210748FFF772FE012280210348F2
:101A6C00FFF76DFE00BF0837BD4680BD0008014082
:101A7C00000C01400010014080B584B000AF03465B
:101A8C00FB800023FB730023BB7307F10E0207F1ED
:101A9C000F01FB881846FFF7CAFE0022802116486A
:101AAC00FFF74DFE012240211448FFF748FEFB7B57
:101ABC001846FFF725FF002280211148FFF73FFE53
:101ACC00012280210E48FFF73AFEBB7B1846FFF738
:101ADC0017FF002280210A48FFF731FE01228021E6
:101AEC000748FFF72CFE012280210348FFF727FE51
:101AFC0000BF1037BD4680BD00080140000C0140FE
:101B0C000010014080B500AF012280219A48FFF7F8
:101B1C0016FE01224FF400719748FFF710FE0122C8
:101B2C0080219648FFF70BFE002240219248FFF7D8
:101B3C0006FE0220FEF78AFC012240218E48FFF7A8
:101B4C00FEFD002280218C48FFF7F9FD0022402188
:101B5C008B48FFF7F4FD0020FFF7D2FE0022802116
:101B6C008648FFF7ECFD012280218448FFF7E7FD52
:101B7C00002280218148FFF7E2FD012280217F486D
:101B8C00FFF7DDFD002280217C48FFF7D8FD012204
:101B9C0080217A48FFF7D3FD002280217748FFF798
:101BAC00CEFD012280217548FFF7C9FD012280215D
:101BBC007148FFF7C4FDC820FEF748FCF120FFF781
:101BCC0003FF3620FFF72CFF0420FFF729FF00202E
:101BDC00FFF726FF3C20FFF723FF0F20FFF720FF26
:101BEC008F20FFF71DFFF220FFF7EEFE1820FFF706
:101BFC0017FFA320FFF714FF1220FFF711FF02209D
:101C0C00FFF70EFFB220FFF70BFF1220FFF708FFC4
:101C1C00FF20FFF705FF1020FFF702FF0020FFF762
:101C2C00FFFEF820FFF7D0FE2120FFF7F9FE04207D
:101C3C00FFF7F6FEF920FFF7C7FE0020FFF7F0FED6
:101C4C000820FFF7EDFE3620FFF7BEFE0820FFF759
:101C5C00E7FEB420FFF7B8FE0020FFF7E1FEC1203D
:101C6C00FFF7B2FE4120FFF7DBFEC520FFF7ACFE0D
:101C7C000020FFF7D5FE9120FFF7D2FE8020FFF762
:101C8C00CFFE0020FFF7CCFEE020FFF79DFE0F20DB
:101C9C00FFF7C6FE1F20FFF7C3FE1C20FFF7C0FE98
:101CAC000C20FFF7BDFE0F20FFF7BAFE0820FFF750
:101CBC00B7FE4820FFF7B4FE9820FFF7B1FE37209F
:101CCC00FFF7AEFE0A20FFF7ABFE1320FFF7A8FECE
:101CDC000420FFF7A5FE1120FFF7A2FE0D20FFF751
:101CEC009FFE0020FFF79CFEE120FFF76DFE0F200A
:101CFC00FFF796FE3220FFF793FE2E20FFF790FEA3
:101D0C000B20FFF78DFE0D20FFF78AFE0520FFF755
:101D1C0087FE4720FFF784FE7520FFF781FE3720F2
:101D2C00FFF77EFE0620FFF77BFE1020FFF778FE04
:101D3C000320FFF775FE2420FFF772FE2020FFF72B
:101D4C006FFE0020FFF76CFE3A20FFF73DFE55209A
:101D5C00FFF766FE1120FFF737FE3620FFF734FE43
:101D6C002820FFF75DFE7820FEF770FB2920FFF797
:101D7C002BFE00BF80BD00BF0008014000100140D9
:101D8C00000C014080B500AF2820FFF71DFE0A2093
:101D9C00FEF75CFB1020FFF717FE7820FEF756FBD2
:101DAC0000BF80BD90B585B000AF04460846114613
:101DBC001A462346FB800346BB800B467B801346AA
:101DCC003B803A20FFF700FE5520FFF729FE2A2022
:101DDC00FFF7FAFDFB881846FFF74EFE7B88184686
:101DEC00FFF74AFE2B20FFF7EFFDBB881846FFF7E5
:101DFC0043FE3B881846FFF73FFE2C20FFF7E4FD1F
:101E0C000023FB6006E03B8C1846FFF735FEFB68B1
:101E1C000133FB60FB68B3F5163FF4DB00BF00BF7A
:101E2C001437BD4690BD000080B485B000AF154B93
:101E3C009B69144A43F001039361124B9B6903F0B5
:101E4C000103BB60BB680F4BDB690E4A43F0805348
:101E5C00D3610C4BDB6903F080537B607B680A4BCE
:101E6C005B68FB60FB6823F0E063FB60FB6843F09E
:101E7C008063FB60044AFB68536000BF1437BD46A7
:101E8C0080BC7047001002400000014080B588B053
:101E9C0000AF786007F1100300221A605A609A6054
:101EAC00DA607B681B68154A934223D1144BDB69BB
:101EBC00134A43F40033D361114BDB6903F4003351
:101ECC00FB60FB680E4B9B690D4A43F00403936166
:101EDC000B4B9B6903F00403BB60BB680C233B6199
:101EEC0002237B610223FB6107F1100319460548AD
:101EFC00FFF78AFA00BF2037BD4680BD0044004082
:101F0C000010024000080140F8B500BFF8BC08BC46
:101F1C009E467047F8B500BFF8BC08BC9E4670479B
:101F2C00000000000000000001020304060708097D
:101F3C00000000000102030402030405060708095F
:0C1F4C000A0B0C0D0E0F1010010200001B
:081F5800910200087501000868
:041F60004D01000827
:101F6400100000000100000000127A007800002038
:04000005080017F1E7
:00000001FF
